:020000042000DA
:1000000000000120910100207F03002081030020D7
:1000100083030020850300208703002000000000E8
:100020000000000000000000000000008903002024
:100030008B030020000000008D0300208F030020B0
:1000400091030020930300209503002097030020D4
:10005000990300209B0300209D0300209F030020A4
:10006000A1030020A3030020CD1A0020F11A0020D4
:10007000C1360020AB030020AD030020AF030020F9
:10008000B1030020B3030020B50300202921002084
:10009000B9030020BB030020BD030020BF030020E4
:1000A000C1030020C3030020C503002095270020C2
:1000B0008D280020CB030020CD030020CF0300209B
:1000C000D1030020D3030020D9150020E51500201E
:1000D000D9030020DB030020DD030020DF03002024
:1000E000E1030020E3030020E5030020E7030020F4
:1000F000E9030020EB030020ED030020EF030020C4
:10010000F1030020F3030020F5030020F703002093
:10011000F9030020FB030020FD030020FF03002063
:10012000010400200304002085150020B5150020DF
:10013000090400200B0400200D0400200F040020FF
:1001400011040020130400201504002017040020CF
:10015000190400201B0400201D0400201F0400209F
:10016000210400202304002025040020270400206F
:10017000290400202B0400202D0400202F0400203F
:1001800031040020330400200000000000000000C3
:100190004FF0000BDFF8BE020068DFF8B612096806
:1001A00001F0030100F01C00142801D14BF0020BF8
:1001B000002901D04BF0010BBBF1000F05D0A7487F
:1001C000A749DFF8722200F09FF8A64880470BF09D
:1001D000020ABAF1000F0CD0DFF86E02DFF86E12DF
:1001E00002680B680FB44FF000024FF0FF0302608B
:1001F0000B609D484FF000024FF00103022808D128
:10020000DFF83A120A60DFF83E120A60DFF83212B5
:100210000B60012808D1DFF82A120A60DFF82612E5
:100220000A60DFF81A120B609048002809D1904844
:100230009049914A00F030F890489149914A00F075
:100240002BF891489149924A00F026F8914892493A
:10025000DFF8E22100F058F8BBF1000F10D08F4812
:100260008F49DFF8D62100F04FF80BF0020ABAF1FF
:10027000000F05D00FBC02600B6000BFAFF3008021
:10028000DFF820020FF2030E00474FF000004FF09E
:100290000001DFF814F2FEE72DE9F841884225D08D
:1002A000B2EB010200D5FEE740EA010313F00303BD
:1002B00002D000F01DF819E04FF000039046121133
:1002C000F7D09A421CBFF0C8F0C103F10103F8D186
:1002D00008F00F08B8F1000F08D004780C7000F196
:1002E000010001F10101B8F10108F6D1BDE8F88182
:1002F00008B54FF0000303780B7000F1010001F125
:100300000101013AF7D108BD884237D000F0030659
:10031000002E14D04FF00405A5EB06044FF008079B
:1003200007FB06F8914669FA08F9002C07D080F817
:10033000009069FA07F900F10100013CF5E74FF080
:1003400000060F46091A88460911914614461546BB
:10035000B14206D018BFA0E8340206F10106B1424E
:10036000F8D108F00F08B8F1000F07D002704FEA7B
:10037000322200F10100B8F10108F4E77047FEE70E
:10038000FEE7FEE7FEE7FEE7FEE7FEE7FEE7FEE745
:10039000FEE7FEE7FEE7FEE7FEE7FEE7FEE7FEE735
:1003A000FEE7FEE7FEE7FEE7FEE7FEE7FEE7FEE725
:1003B000FEE7FEE7FEE7FEE7FEE7FEE7FEE7FEE715
:1003C000FEE7FEE7FEE7FEE7FEE7FEE7FEE7FEE705
:1003D000FEE7FEE7FEE7FEE7FEE7FEE7FEE7FEE7F5
:1003E000FEE7FEE7FEE7FEE7FEE7FEE7FEE7FEE7E5
:1003F000FEE7FEE7FEE7FEE7FEE7FEE7FEE7FEE7D5
:10040000FEE7FEE7FEE7FEE7FEE7FEE7FEE7FEE7C4
:10041000FEE7FEE7FEE7FEE7FEE7FEE7FEE7FEE7B4
:10042000FEE7FEE7FEE7FEE7FEE7FEE7FEE7FEE7A4
:10043000FEE7FEE7704700000000A2A2A2A2008033
:100440000340088003401080034030800340348024
:1004500003403880034018080240000000F00020EC
:1004600000000120B93B0020000000000000000057
:10047000000000200000002090010020B0040020B7
:10048000B0040020304A0020304A0020304A0020CA
:10049000D0500020D0500020F0810020F0810020BA
:1004A00000F00020053E0020690C00200000000044
:1004B0000348044B834202D0034B03B118477047F3
:1004C000D0500020D0500020000000000548064910
:1004D000091A891001EBD171491002D0034B03B105
:1004E00018477047D0500020D05000200000000076
:1004F00010B5064C237843B9FFF7DAFF044B13B16C
:100500000448AFF300800123237010BDD0500020B9
:10051000000000000C4A002008B5054B1BB105493E
:100520000548AFF30080BDE80840FFF7CFBF00BF2C
:1005300000000000D45000200C4A002080B483B09A
:1005400000AF786039607B681A78354B1A707B6829
:100550005A78334B5A707B689A78314B9A707B6823
:10056000DA782F4BDA707B681A792D4B1A717B6819
:100570005A792B4B5A713B681A78294B9A713B6810
:100580005A78274BDA713B689A78254B1A723B6888
:10059000DA78234B5A72224B1A78224B9A71204BED
:1005A0005A78204BDA711E4B9A781E4B1A721C4BEC
:1005B000DA781C4B5A721A4B1A791A4B9A72184BEA
:1005C0005A79184BDA72164B1A78164B9A75144BE7
:1005D0005A78144BDA75124B9A78124B1A76104BE4
:1005E000DA78104B5A760E4B1A790E4B9A760C4BE2
:1005F0005A790C4BDA760A4B9A790A4B1A77084BE0
:10060000DA79084B5A77064B1A7A064B9A77044BDD
:100610005A7A044BDA7700BF0C37BD4680BC70476E
:100620001C810020304A002080B483B000AF786085
:1006300039603B689A7D2B4B1A703B68DA7D294BF9
:100640005A703B681A7E274B9A703B685A7E254B3E
:10065000DA703B689A7E234B1A713B68DA7E214B35
:100660005A71204B00221A751E4B02225A753B68A4
:100670009A7D1C4B83F820203B68DA7D194B83F868
:1006800021203B681A7E174B83F822203B685A7E54
:10069000144B83F823203B689A7E124B83F8242066
:1006A0003B68DA7E0F4B83F825203B681A7F0D4BA1
:1006B00083F826203B685A7F0A4B83F827203B6843
:1006C0009A7F084B83F828203B68DA7F054B83F834
:1006D0002920044B7B602A2318460C37BD4680BC7A
:1006E000704700BF304A002080B483B000AF78600C
:1006F0002D4BFF221A702C4BFF225A702A4BFF22DF
:100700009A70294BFF22DA70274BFF221A71264B71
:10071000FF225A71244B00221A75234B01225A756D
:10072000224B9A79204B5A77204BDA791E4B1A7755
:100730001E4B1A7A1C4B9A771C4B5A7A1A4BDA7753
:10074000194BFF2283F82020174BFF2283F821202A
:10075000154BFF2283F82220134BFF2283F823201E
:10076000114BFF2283F824200F4BFF2283F8252012
:100770000E4B9A790C4B83F826200C4BDA790A4BF6
:1007800083F82720094B1A7A074B83F82820074B58
:100790005A7A054B83F82920034B7B602A2318469D
:1007A0000C37BD4680BC7047304A00201C810020B9
:1007B00080B483B000AF786039607B683A681A60B3
:1007C00000BF0C37BD4680BC704780B582B000AF1B
:1007D00078607B681B680433184600F043FF0346CB
:1007E00018460837BD4680BD80B584B000AF78603C
:1007F0000B467B8013463B807B681B6808337A88F6
:100800001146184600F014FF7B681B680C333A88C9
:100810001146184600F00CFF7B681B68184600F074
:1008200021FF0346FB73FB7B43F00103FB737B68F3
:100830001B68FA7B1146184600F012FF00BF103704
:10084000BD4680BD80B582B000AF78607B681B6814
:10085000184600F007FF034618460837BD4680BD1E
:1008600080B584B000AF78607B681B68184600F0E4
:10087000F9FE0346FB73FB7B43F00203FB737B68CB
:100880001B68FA7B1146184600F0EAFE00BF1037DD
:10089000BD4680BD80B584B000AF78607B681B68C2
:1008A000184600F0DFFE0346FB73FB7B43F00403B6
:1008B000FB737B681B68FA7B1146184600F0D0FE7C
:1008C00000BF1037BD4680BD80B584B000AF7860F2
:1008D0007B681B68184600F0C5FE0346FB73FB7B74
:1008E00043F00803FB737B681B68FA7B11461846CC
:1008F00000F0B6FE00BF1037BD4680BD80B582B0A7
:1009000000AF78600B467B807B681B681C337A885D
:100910001146184600F08CFE00BF0837BD4680BD6A
:1009200080B582B000AF78607B681B6818331846CA
:1009300000F080FE034618460837BD4680BD000023
:1009400080B584B000AF0346FB71174AFB79137082
:10095000154B1B780021184602F030FD0346FB8141
:10096000FB896FEA43436FEA5343FB810E4B1B78CD
:10097000FA890021184602F0EFFC0B4B1B7800218E
:10098000184602F01BFD0346FB81FB8923F400633C
:10099000FB81054B1B78FA890021184602F0DCFC2C
:1009A00000BF1037BD4680BDEC50002080B588B038
:1009B00000AF7860304A07F1080392E8030083E84B
:1009C00003002E4B1B780421184602F0F7FC034667
:1009D000FB83FB8B23F4F073FB837B687B61002339
:1009E000BB6116E07B6903F001033B613B69002BAF
:1009F00009D0BB695B0007F12002134433F8182CBF
:100A0000FB8B1343FB837B695B087B61BB69013311
:100A1000BB61BB69032BE5D9184B1B78FA8B04210A
:100A2000184602F099FC154B1B780921184602F074
:100A3000C5FC0346FB83FB8B23F44073FB837B687D
:100A400003F01003002B03D0FB8B43F40073FB83F4
:100A50007B6803F02003002B03D0FB8B43F48073EF
:100A6000FB83064B1B78FA8B0921184602F074FCB5
:100A700000BF2037BD4680BDC4460020EC5000209A
:100A800080B582B000AF1D4B3B601D4B1B78002230
:100A90001F21184602F060FC194B1B7800211846F4
:100AA00002F08CFC0346FB80FB8843F49053FB80F0
:100AB000134B1B78FA880021184602F04DFC104BAE
:100AC0001B780121184602F079FC0346FB80FB8865
:100AD00003F02003BB803B68013B3B60BB88002BDD
:100AE00002D13B68002BEAD1FB884FF6FF7293429C
:100AF000E5D000BF0837BD4680BD00BF40420F00B3
:100B0000EC50002080B586B000AF78603960294B8A
:100B10001B780121184602F051FC0346BB82BB8AB8
:100B200003F004037B827B8A002B3BD00123FB75FF
:100B3000204B1B7800221F21184602F00DFC1D4B94
:100B40001B781C21184602F039FC0346BB82BB8A85
:100B500003F020033B82BB8A03F01803FB813B8A2E
:100B6000002B03D13B6800221A7002E03B6801228F
:100B70001A70FB89082B08D0102B02D0002B08D04C
:100B80000BE07B6802221A700EE07B6801221A706B
:100B90000AE07B6800221A7006E07B6803221A7064
:100BA00000BF01E00023FB75FB7D18461837BD46EA
:100BB00080BD00BFEC50002080B483B000AF03467E
:100BC000FB71FB7903F01F02064997F907305B09B7
:100BD000012000FA02F241F8232000BF0C37BD4685
:100BE00080BC704700E100E080B483B000AF0346F2
:100BF000FB71FB7903F01F02074997F907305B0986
:100C0000012000FA02F2203341F8232000BF0C3704
:100C1000BD4680BC704700BF00E100E080B483B0F7
:100C200000AF0346FB71FB7903F01F02074997F9F8
:100C300007305B09012000FA02F2603341F82320FB
:100C400000BF0C37BD4680BC704700BF00E100E02C
:100C500080B400AF034BD3F884301846BD4680BC47
:100C6000704700BF0030014080B500AF00F02AF8A7
:100C7000124B93F90030022B09D0032B15D0012B16
:100C800019D100F0DBF80D4B00221A7014E00C4B68
:100C900093F90030012B04DD094B00221A7000F09B
:100CA000CDFA064B00221A7006E000F03FFC034B21
:100CB00000221A7000E000BFDAE700BFED5000200C
:100CC000F450002080B500AF03224FF46121444866
:100CD00000F066FD0121424800F052FE0022414929
:100CE0003F4800F09FFE40493D4800F091FD01F073
:100CF00099FE4221082001F0D1FE4221092001F095
:100D0000CDFE082001F0E6FE092001F0E3FE4FF0E1
:100D1000A0413648FFF74CFD2320FFF74DFF344933
:100D20002F4800F075FD2220FFF75EFF314802F0EA
:100D3000BBF822222F4B1A7122222E4B5A712222EB
:100D40002C4B9A7122222B4BDA712222294B1A72D8
:100D50002222284B5A72274B3F221A60254B002231
:100D60009A72244B00221A7423492448FFF7E6FBA9
:100D7000204801F09BFF2249214802F07DFB2149D8
:100D8000204802F079FB20491F4802F075FB1F49FB
:100D90001E4802F071FB1E491D4802F06DFB1D4903
:100DA0001C4802F069FB1C4B1C4A1A601C4B1D4A74
:100DB0001A601D4802F0A4FC1C4802F0AFFC1C495C
:100DC000074800F025FD00F0B1FB1A49044800F087
:100DD0001FFD1949024800F01BFD00BF80BD00BF88
:100DE000A0810020990E0020D046002054810020D0
:100DF000E446002028810020CC4600202C810020E1
:100E0000F8500020E4560020D05C0020BC62002096
:100E1000A8680020946E0020588100208074002073
:100E20005C8100206C7A0020BD0E0020D50E0020D1
:100E3000F84600200C4700201847002080B500AF7E
:100E4000134B1B68013B042B1CD801A252F823F062
:100E5000650E00206B0E0020730E0020790E00201E
:100E60007F0E002000F06CFA0DE00A48FFF712FD3B
:100E700009E000F0B1FA06E000F044F903E000F008
:100E80009BF900E000BF024B00221A6000BF80BD4A
:100E9000F05000205481002080B594B000AF7860FD
:100EA0000023FB6407F1080340221946786800F02C
:100EB00009FDB86400BF5037BD4680BD80B483B023
:100EC00000AF78607B6800221A6000BF0C37BD4617
:100ED00080BC704780B5A8B000AFF860B9607A6098
:100EE000F86800F06DF803461A462E4B1A707B68BE
:100EF000C7F89C302B4B93F90030022B22D12A4BA0
:100F000093F90030002B07D1284B1B68C7F89C30A1
:100F1000264A7B6813600BE0234B93F90030012BCA
:100F200006D1234B1B68C7F89C30214A7B681360AD
:100F30001D4B93F90030DBB20133DBB25AB21A4BCE
:100F40001A7025E0174B93F90030012B07D1F86890
:100F500000F0B9F803461A46164B1A6018E0114B18
:100F600093F90030042B13D10023C7F89830F968A7
:100F7000D7F89400FFF758FBC7F89800D7F89830D7
:100F80000D4A19460D4802F015FB064B00221A7057
:100F9000D7F89C10D7F89C0002F06EFA00BFA0377B
:100FA000BD4680BDED500020F45000205881002047
:100FB0005C810020F050002048500020304A002082
:100FC00080B483B000AF78607B681E331B786422E6
:100FD00093422ED17B681F331B786422934228D121
:100FE0007B6820331B786422934222D17B682133B3
:100FF0001B78C822934204D07B6821331B78FF2BD7
:1010000017D17B6824331B78C02B06D17B6825332E
:101010001B78DE2B01D1012350E07B6824331B7841
:10102000DA2B49D17B6825331B787A2B44D10223F4
:1010300044E07B681B78FF2B3FD17B6801331B7832
:10104000FF2B3AD17B6802331B78FF2B35D17B68AD
:1010500003331B78FF2B30D17B6804331B78FF2BC5
:101060002BD17B6805331B78FF2B26D17B680C3393
:101070001B78082B21D17B680D331B78062B1CD1E4
:101080007B6826331B786422934213D17B68273315
:101090001B78642293420DD17B6828331B7864222D
:1010A000934207D17B6829331B78C822934201D130
:1010B000042303E0032301E000BF002318460C379C
:1010C000BD4680BC704780B485B000AF7860002317
:1010D000FB600023BB600BE0FB681B02BA682A328E
:1010E00079680A4412781343FB60BB680133BB6024
:1010F000BB68032BF0DDFB6818461437BD4680BC87
:101100007047000080B582B000AF7A1DBB1D11464C
:101110001846FFF7F7FC0346FB711D491D4800F018
:1011200077FBFB79012B2BD11B491A4800F070FB90
:10113000BB79012B08D0022B0BD0002B0ED1174905
:10114000144800F065FB0EE01549124800F060FB02
:1011500009E014490F4800F05BFB04E012490D4818
:1011600000F056FB00BF7B79012B04D10F490948E1
:1011700000F04EFB08E00E49064800F049FB03E092
:101180000C49044800F044FB00BF0837BD4680BD51
:1011900038470020A0810020444700204C47002011
:1011A00058470020684700207847002084470020E7
:1011B00094470020A447002080B5A4B002AF1A498C
:1011C0001A4800F025FB002387F887301FE0184BF2
:1011D0009B7A97F887201146184602F0EFF80346ED
:1011E000A7F8843097F88720B7F88430381D00932B
:1011F0001346104A802102F037FE3B1D19460B486A
:1012000000F006FB97F88730013387F8873097F8AE
:1012100087301F2BDBD90849044800F0F9FA00BFDA
:101220008837BD4680BD00BFAC470020A0810020AC
:1012300028810020CC470020E047002080B586B000
:1012400000AF3C4B1B6812331B781B021AB2394BA0
:101250001B6813331B781BB213431BB2FB80364B46
:101260001B6812331B781B021AB2334B1B681333F3
:101270001B781BB213431BB2BB80FA88BB889A420F
:1012800006D22C4B1B687B612B4B1B683B6105E036
:10129000294B1B687B61274B1B683B612A23FB6042
:1012A00019E0FB687A6913441B787B80B7F9023038
:1012B0001B021AB2FB68013379690B441B781BB21D
:1012C00013437B807B88002219461C48FFF78CFA69
:1012D000FB680233FB60FB6840F229429342E0DD89
:1012E0002A23BB6019E0BB683A6913441B787B80F2
:1012F000B7F902301B021AB2BB68013339690B44DB
:101300001B781BB213437B807B88002219460B4855
:10131000FFF76AFABB680233BB60BB6840F2294240
:101320009342E0DD0548FFF79BFA00BF1837BD4642
:1013300080BD00BF588100205C81002054810020C6
:1013400080B584B000AF2A23FB601E4B1B881B0AAC
:101350009BB2DAB21C4B9A741A4B1B88DAB21A4B46
:10136000DA740023BB6016E0FB680133FB60BB68E6
:101370009BB219461548FFF7C1FA1448FFF7D0FA97
:101380000346FB80BB682A33FA88D1B20E4AD15497
:10139000BB680133BB60BB68B3F5007FE4DDFB686D
:1013A0000B4A1946084802F005F90A4B93F9003038
:1013B000002B02D00548FFF76DFA00BF1037BD467D
:1013C00080BD00BFF65000205C4A00205481002000
:1013D00048500020F550002080B582B000AF43494E
:1013E000434800F015FA4348FFF7EFF90346FB7155
:1013F000FB7903F00103BB71BB79002B03D03E499D
:101400003B4800F005FAFB7903F00203BB71BB799E
:10141000002B03D03949364800F0FAF9FB7903F084
:101420000403BB71BB79002B03D03549304800F071
:10143000EFF9FB7903F00803BB71BB79002B03D0F4
:1014400030492B4800F0E4F9FB7903F01003BB713D
:10145000BB79002B03D02C49254800F0D9F9FB7942
:1014600003F02003BB71BB79002B03D02749204830
:1014700000F0CEF926491E4800F0CAF91D48FFF7D2
:10148000E1F90346FB71FB7903F00103BB71BB7902
:10149000002B03D01F49164800F0BAF9FB7903F07E
:1014A0000203BB71BB79002B03D01B49104800F02D
:1014B000AFF9FB7903F00403BB71BB79002B03D0B8
:1014C00016490B4800F0A4F9154B93F90030002B96
:1014D00003D01449064800F09BF91349044800F072
:1014E00097F900BF0837BD4680BD00BFF047002018
:1014F000A0810020548100201048002020480020B6
:101500003048002040480020504800206448002017
:101510007848002098480020A8480020B8480020BB
:10152000F5500020C4480020D848002080B582B083
:1015300000AF00237B60084B1B681846FFF7D4F808
:1015400078607B68054A1946054802F033F800BF09
:101550000837BD4680BD00BF58800020485000209D
:10156000304A002080B584B000AF7860FFF770FB90
:10157000F860FA687B681340FB60FB681846103718
:10158000BD4680BD80B500AF4FF48070FFF7EAFF25
:101590000346002B07D0064B93F9003083F001037C
:1015A0005AB2034B1A70082001F0C0FA00BF80BD88
:1015B000F550002080B500AF4FF40070FFF7D2FF68
:1015C0000346002B03D0FFF79DFDFFF7F5FD092033
:1015D00001F0ACFA00BF80BD80B400AF00BFBD46D3
:1015E00080BC704780B500AFFFF7AAFE2320FFF74D
:1015F00015FB0248FFF768F900BF80BD5481002049
:1016000001607047006870470EB503FA01F303EA02
:10161000020301686FEA020201EA020141EA0301E2
:1016200001600EBD006800EA020020FA01F0704778
:1016300001807047008870470EB503FA01F303EA92
:10164000020301886FEA020201EA020141EA030192
:1016500001800EBD008800EA020020FA01F0704708
:1016600001707047007870470EB503FA01F303EA82
:10167000020301786FEA020201EA020141EA030172
:1016800001700EBD007800EA020020FA01F07047F8
:1016900080B483B000AF0346FB71FB7903F01F02F7
:1016A000064997F907305B09012000FA02F241F878
:1016B000232000BF0C37BD4680BC704700E100E02E
:1016C00080B483B000AF0346FB71FB7903F01F02C7
:1016D000074997F907305B09012000FA02F26033ED
:1016E00041F8232000BF0C37BD4680BC704700BFC7
:1016F00000E100E080B483B000AF78600B46FB707F
:101700007B6803F070427B685B0123F07E4323F02B
:101710001F031343FA789200134403F100731A462F
:101720000123136000BF0C37BD4680BC704780B4F6
:1017300083B000AF78600B46FB707B6803F07042AB
:101740007B685B0123F07E4323F01F031343FA7889
:101750009200134403F100731A460023136000BF84
:101760000C37BD4680BC704780B483B000AF786052
:101770000B46FB707B6803F070427B685B0123F0D3
:101780007E4323F01F031343FA789200134403F1BE
:1017900000731B68DBB218460C37BD4680BC70472F
:1017A00080B584B000AFF860B9601346FB71FB6888
:1017B000144A934204D0FB68134A934200D000BEFF
:1017C000FB791A46B968F86800F04AFAFB681B68AA
:1017D000303303211846FFF7AAFFFB681B68343338
:1017E00002211846FFF7A3FFFB681B68383300216E
:1017F0001846FFF79CFFFB68044A5A6200BF103787
:10180000BD4680BDA08100206081002041200020D5
:1018100080B487B000AF7860396000237B617B685B
:10182000264A934204D07B68254A934200D000BEEA
:101830003B68002B00D100BE7B68204A934203D056
:101840007B681F4A934233D13B68002B30D03A6803
:101850007B6913441B78FB7327E07B681B681B7D47
:10186000BB737B685A7BBB7B1343DAB27B685A73CA
:10187000BB7B03F02003002BEFD000233B610EE085
:101880007B681B68FA7B1A703B6901333B617B699B
:1018900001337B613A687B6913441B78FB73FB7BE4
:1018A000002B02D03B690F2BEAD9FB7B002BD4D154
:1018B00000BF1C37BD4680BC704700BFA081002020
:1018C0006081002080B487B000AFF860B9607A60B2
:1018D00000237B610023FB74FB68274A934204D0FA
:1018E000FB68264A934200D000BEBB68002B00D1A3
:1018F00000BE7B68002B00D100BEFB681E4A9342ED
:1019000003D0FB681D4A934230D1BB68002B2DD019
:101910007B68002B2AD0FB681B681B7DFB74FB686F
:101920005A7BFB7C1343DAB2FB685A7315E0FB6801
:101930001A68B9687B690B441278D2B21A707B6955
:1019400001337B61FB681B681B7DFB74FB685A7B62
:10195000FB7C1343DAB2FB685A73FB7C03F0010390
:10196000002B03D07A697B689A42E0D37B691846E2
:101970001C37BD4680BC7047A081002060810020DC
:1019800080B582B000AF78600B467B807B68234ACD
:10199000934204D07B68224A934200D000BE7B88E9
:1019A0004FF6FF72934200D100BE7B681B4A934200
:1019B00003D07B681A4A93422CD17B884FF6FF7282
:1019C000934227D07B6893F904301846FFF778FEDE
:1019D0007B681B681B79D9B27B88DBB203F00F03ED
:1019E000DAB27B681B680A43D2B21A717B681B6843
:1019F00093F82430D9B27B881B09DAB27B681B6864
:101A00000A43D2B283F824207B6893F90430184645
:101A1000FFF73EFE00BF0837BD4680BDA081002015
:101A20006081002080B584B000AFF860B9601346D3
:101A3000FB71FB68234A934204D0FB68224A93421D
:101A400000D000BEBB68002B00D100BEFB79C02BCC
:101A500000D900BEFB681B4A934203D0FB681A4AB8
:101A600093422BD1BB68002B28D0FB79C02B25D803
:101A7000FB68BA681A62FB681B681B7ADBB25BB250
:101A800003F03F035AB297F9073013435AB2FB6889
:101A90001B68D2B21A72FB6893F904301846FFF73C
:101AA0000FFEFB681B68043300211846FFF722FE77
:101AB000FB6893F904301846FFF7EAFD00BF1037C2
:101AC000BD4680BDA081002060810020684620F0D6
:101AD00007018D4689B500AF044800F0ADF900BF9D
:101AE000BD46BDE889408546704700BFA081002003
:101AF000684620F007018D4689B500AF044800F024
:101B00009BF900BFBD46BDE889408546704700BFD0
:101B10006081002080B588B000AF786039607B6854
:101B20004B4A934204D07B684A4A934200D000BE9D
:101B30007B68474A934204D07B68464A934240F010
:101B400082807B683A689A6002F046F87B68404A77
:101B5000934203D1404B1B68FB6102E03F4B1B6883
:101B6000FB61FB69DA003B68B2FBF3F3BB61BB6965
:101B70005B087B617B699B093B613B699B017A69DF
:101B8000D31AFB603B69DB01BA69D21AFB685B00C0
:101B9000D31AFA681344FB603B69B3F5803F00D366
:101BA00000BE3B69B3F5803F4DD23B69012B2AD97A
:101BB0007B681B680C3307211846FFF79BFD3B69C8
:101BC0001A0A7B681B68D2B21A717B681B683A6973
:101BD000D2B21A707B681B680C3307211846FFF7D6
:101BE000A6FD7B681B68303307211846FFF782FD8E
:101BF000FB68FF2B00D900BE7B681B68FA68D2B275
:101C000083F83C201FE07B681B680C3307211846D3
:101C1000FFF770FD3B691A0A7B681B68D2B21A7124
:101C20007B681B683A69D2B21A707B681B680C33F8
:101C300007211846FFF77BFD7B681B6830330721BF
:101C40001846FFF774FD00BF2037BD4680BD00BFBA
:101C5000A0810020608100205050002054500020BE
:101C600080B584B000AFF860B9601346FB71FB68C3
:101C70006D4A934204D0FB686C4A934200D000BE88
:101C8000FB68694A934216D1FB684FF080421A60A4
:101C9000FB680A221A71664B9B6C654A43F080030D
:101CA00093640A20FFF70CFD614B9B6C604A23F0A4
:101CB0008003936414E0FB685E4A1A60FB680B22A1
:101CC0001A715B4B9B6C5A4A43F4807393640B20EC
:101CD000FFF7F6FC564B9B6C554A23F480739364D4
:101CE000FB681B6800221A71FB681B6800221A72CD
:101CF000FB681B68083301211846FFF7FBFCFB68F3
:101D00001B68083302211846FFF7F4FCFB681B68C8
:101D1000083300211846FFF7EDFCFB681B68103301
:101D200004211846FFF703FDFB681B6810330521EB
:101D30001846FFF7FCFCFB681B683433012118468A
:101D4000FFF7F5FCFB681B68343300211846FFF7EA
:101D5000EEFCFB681B68383301211846FFF7E7FCEF
:101D6000FB681B68303305211846FFF7E0FCFB6871
:101D70001B68303306211846FFF7D9FCFB681B6847
:101D8000303307211846FFF7D2FCFB681B68383355
:101D900003211846FFF7CBFCFB681B68002283F881
:101DA0004420FB681B68002283F84820FB681B68FE
:101DB000002283F84C20B968F868FFF7ABFEFB6897
:101DC0001B68FA791A73FB68BA689A60FB68FA793B
:101DD0001A73FB6800225A61FB6800221A61FB68D3
:101DE00000229A61FB6800221A62FB6800225A6294
:101DF000FB680022DA61FB6800229A62FB6800221D
:101E0000DA62FB6800221A63FB6800225A63FB68EF
:101E100000229A63FB680022DA63FB6800225A738F
:101E200000BF1037BD4680BDA0810020608100202A
:101E3000008003400000014080B584B000AF7860AE
:101E40007B687D4A934204D07B687C4A934200D0F1
:101E500000BE7B68784A934204D07B68774A9342FD
:101E600040F0DA807B681B681B7ADBB203F00F035B
:101E7000FB73FB7B0C2B00F2CD8001A252F823F008
:101E8000B51E002015200020D31E00202D1F00208D
:101E9000F11E0020152000200F1F0020152000201B
:101EA00015200020152000201520002015200020DE
:101EB000F11E00207B689B6A002B00D100BE7B686E
:101EC0009B6A002B00F0AA807B689B6A7868984721
:101ED000A4E07B685B6A002B00D100BE7B685B6A74
:101EE000002B00F09D807B685B6A7868984797E0DC
:101EF0007B681B6A002B00D100BE7B681B6A002B2D
:101F000000F090807B681B6A786898478AE07B685D
:101F1000DB69002B00D100BE7B68DB69002B00F081
:101F200083807B68DB69786898477DE07B681B6805
:101F3000283300211846FFF717FC0346002B0CD06E
:101F40007B68DB6A002B00D100BE7B68DB6A002B5C
:101F500003D07B68DB6A786898477B681B68283306
:101F600001211846FFF700FC0346002B0CD07B68CC
:101F70001B6B002B00D100BE7B681B6B002B03D0BA
:101F80007B681B6B786898477B681B682833022145
:101F90001846FFF7E9FB0346002B0CD07B685B6B10
:101FA000002B00D100BE7B685B6B002B03D07B68ED
:101FB0005B6B786898477B681B6828330321184659
:101FC000FFF7D2FB0346002B0CD07B689B6B002BEA
:101FD00000D100BE7B689B6B002B03D07B689B6BA2
:101FE000786898477B681B68283304211846FFF7F8
:101FF000BBFB0346002B19D07B68DB6B002B00D1A9
:1020000000BE7B68DB6B002B10D07B68DB6B7868D5
:1020100098470BE000BE0AE000BF08E000BF06E002
:1020200000BF04E000BF02E000BF00E000BF00BF4F
:102030001037BD4680BD00BFA08100206081002018
:1020400080B586B000AF78607B68354A934204D093
:102050007B68344A934200D000BE7B681B69002B2A
:1020600000D100BE7B685B69002B00D100BE7B689D
:102070002B4A934203D07B682A4A93424CD17B6817
:102080001B69002B48D07B685B69002B44D07B68C0
:102090001B681B7DFB737B685A7BFB7B1343DAB2A7
:1020A0007B685A73FB7B03F02003002B24D01023A2
:1020B0003B617B685A697B689B69D31ABB60BB68CC
:1020C0000F2B01D8BB683B6100237B6110E07B686C
:1020D0001A697B689B691A447B681B6812781A70BE
:1020E0007B689B695A1C7B689A617B6901337B61C1
:1020F0007A693B699A42EAD37B689A697B685B6933
:102100009A4209D17B6800225A617B681B680433BC
:1021100001211846FFF70BFB00BF1837BD4680BDF5
:10212000A08100206081002080B582B000AF0F4BFD
:102130005B68FB710D4B9B68DAB2FB791340FB7156
:10214000FB7903F00203BB71BB79002B01D000F0D7
:10215000E5F8FB7903F001037B717B79002B01D05B
:1021600000F006F800BF0837BD4680BD00600140A2
:1021700080B584B000AF624B1B78022B3DD0052B9D
:1021800068D0012B40F0AA805E4B1B889BB2002BCD
:102190002FD05D4B1A685B4B1B889BB219461046CB
:1021A00000F00AFAF860574B1B889BB21A46FB688E
:1021B00093420FD2534B1B889AB2FB689BB2D31A3F
:1021C0009AB2504B1A80504B1A68FB6813444E4A1F
:1021D000136090E04B4B00221A804C4B1B68002B85
:1021E00003D0474B02221A7085E0454B03221A7038
:1021F00081E000BE00F0BAF97DE0444B1B68002B83
:1022000024D0434B1A68414B1B681946104600F016
:10221000D3F9B8603D4B1B68BA689A420CD23B4B6D
:102220001A68BB68D31A394A1360394B1A68BB68FD
:102230001344374A13605EE0364B9B68354A23F0FF
:10224000010393602E4B03221A7054E000BE00F08D
:102250008DF950E02D4B1B68002B1BD12E4B1B68BA
:10226000002B14D02C4B1B68294898470246274B5B
:102270001A60264B1B68002B0CD1264B9B68254A05
:1022800023F0010393601E4B03221A7002E000BE8C
:1022900000F06CF91D4B1B68002B09D11D4B9B688E
:1022A0001C4A23F001039360154B03221A7022E0AD
:1022B000174B1A68154B1B681946104600F07CF93D
:1022C0007860124B1A687B68D31A104A1360104B5F
:1022D0001A687B6813440E4A13600CE00D4B9B6830
:1022E0000C4A23F001039360002000F01FF9044B17
:1022F00000221A7000BF00BF1037BD4680BD00BF6E
:102300008180002064800020608000206C8000209C
:1023100068800020006001407C80002080B584B08F
:1023200000AF7C4B1B69FB81FB8923F4FF4323F047
:102330007F03BB81FB89FB72774B1B78052B00F277
:10234000D68001A252F823F061230020DB24002074
:10235000DB240020B923002007240020AF24002024
:10236000BB89002B00F0CA80FB7AF12B06D0FB7AE8
:10237000BB72BB7A184600F04FF9BFE0674B0022F2
:102380001A80674B1B68654A128892B21344FA7A26
:102390001A70624B1B889BB201339AB25F4B1A8052
:1023A0005F4B1B685D4A128892B2134400221A7078
:1023B000594B04221A70A1E0BB89002B00F0A080C9
:1023C000FB7A7B72574B1B78DBB27A7A9A4215D133
:1023D000524B00221A80524B1B68504A128892B20C
:1023E00013447A7A1A704D4B1B889BB201339AB210
:1023F0004A4B1A80484B04221A7081E07B7A1846B7
:1024000000F00AF97CE0BB89002B06D0FB7A3B7216
:102410003B7A184600F000F974E0414B1A683F4BD4
:102420001B889BB2013B13441B78F12B16D13C4B0C
:102430001B683A4A128892B21344FA7A1A70384BDF
:102440001A68364B1B889BB2013B13441B78184615
:1024500000F0E2F8304B00221A7053E02F4B1B883B
:102460009AB2314B1B889A4210D2FB7AFB712C4BEB
:102470001B682A4A128892B21344FA791A70274BC1
:102480001B889BB201339AB2244B1A80234B1B88C2
:102490009AB2254B1B889A4234D1204B1B889BB2A1
:1024A000184600F043F81C4B00221A702AE0BB8942
:1024B000002B0BD11A4B1B680133FA7A1A700220D9
:1024C00000F034F8144B00221A701EE0FB7ABB7146
:1024D000BB79184600F0A0F817E0BB89002B13D099
:1024E000FB7A7B717B79184600F096F80CE00020AF
:1024F00000F01CF8084B00221A7006E000BF04E050
:1025000000BF02E000BF00E000BF00BF1037BD46C3
:1025100080BD00BF006001408180002076800020E7
:10252000708000205C8000207480002080B582B024
:1025300000AF0346FB800A4B1B68002B0CD0084BF6
:102540001B68084A1268F98810469847044B002215
:102550001A60054B00221A7000BF0837BD4680BDC7
:1025600078800020708000208080002080B582B0BC
:1025700000AF0E4B1B78DBB2002B13D00C4B1B882B
:102580009BB21846FFF7D2FF0A4B1B68094A43F07B
:1025900001031360074B1B6803F001037B607B683A
:1025A000002BF7D100BF0837BD4680BD80800020DA
:1025B000768000200060014080B485B000AF786074
:1025C0003960144B1B68134A23F004031360002383
:1025D000FB60104B5B6803F00103BB600DE07A68A1
:1025E000FB6813441A780B4B1A61FB680133FB60DC
:1025F000084B5B6803F00103BB60BB68002B03D092
:10260000FA683B689A42EAD3FB6818461437BD461D
:1026100080BC70470060014080B582B000AF0346C7
:10262000FB71064B1B68002B04D0044B1B68FA7926
:102630001046984700BF0837BD4680BD8480002003
:1026400080B485B000AFF860B9607A60FB704D4827
:102650004D4B1A68F97813469B001344DB01034481
:1026600003F5E27319604949474B1A6813469B000A
:1026700013449B000B440433FA681A604349424BED
:102680001A6813469B0013449B000B440833BA6836
:102690001A603E493C4B1A6813469B0013449B004A
:1026A0000B440C331B683948374A11681A0C120462
:1026B0000B469B000B449B0003440C331A607B6861
:1026C000B3F5803F0FD97B68A3F58033304A13619F
:1026D000BB6803F580332E4AD360FB6803F5803373
:1026E0002B4A93601AE02949274B1A6813469B002E
:1026F00013449B000B440C331B687A6892B211465A
:102700002248214A1268194313469B0013449B0038
:1027100003440C3319601E4B00221A611B491A4BEB
:102720001A6813469B0013449B000B440C331B6830
:102730001648154A126843F4E00113469B001344FF
:102740009B0003440C3319600E490F4B1A68134663
:102750009B001344DB010B4403F5E07301221A6074
:102760000849094B1A6813469B001344DB010B44CC
:1027700003F5E67300221A6000BF1437BD4680BC23
:10278000704700BF00002842A080002000400140A8
:1027900088800020684620F007018D4689B500AF8B
:1027A000354A364B1B6803F52873012142F8231084
:1027B0003349324B1A6813469B0013449B000B4469
:1027C0000C331B682E482D4A126823F4E00113468F
:1027D0009B0013449B0003440C331960274B1B6878
:1027E0000133264A1360254B1B68042B02D1234B6F
:1027F00000221A60234B1B69002B17D0224B1B6849
:10280000042B03D1204B00221A6004E01E4B1B68EE
:1028100001331D4A13601B4B98681A4BD968194B3A
:102820001A69184B1B7DFFF70BFF1EE01449134B71
:102830001A6813469B0013449B000B440C331B681F
:1028400003F4E003002B10D10C4B00221A600E4B56
:1028500000221A600B4B01221A700A4B5B68002B96
:1028600003D0084B5B680120984700BFBD46BDE818
:1028700089408546704700BF00002842A4800020A0
:102880000040014088800020A0800020684620F0A1
:1028900007018D4681B583B000AF384B1B683B60A4
:1028A0003B6803F470633B603B68002B2FD03449D6
:1028B000344B1A6813469B001344DB010B4403F5A9
:1028C00002731B68002B0AD02F4B02221A702E4B6A
:1028D0005B68002B03D02C4B5B680220984728498B
:1028E000284B1A6813469B001344DB010B4403F585
:1028F00003731B68002B0AD0234B03221A70224B50
:102900005B68002B03D0204B5B68032098471B4B70
:102910001B683B603B6803F470433B603B68002BE3
:102920000AD0194B04221A70174B5B68002B03D096
:10293000154B5B680420984700237B6014E0104926
:102940007A6813469B001344DB010B4403F5E473E0
:1029500001221A600A4A7B6803F52873012142F8B4
:1029600023107B6801337B607B68032BE7D900BFB2
:102970000C37BD46BDE881408546704700400140A8
:1029800000002842A48000208880002080B483B00A
:1029900000AF0346FB71FB7903F01F02064997F96C
:1029A00007305B09012000FA02F241F8232000BF42
:1029B0000C37BD4680BC704700E100E080B483B0B6
:1029C00000AF0346FB71FB7903F01F02074997F93B
:1029D00007305B09012000FA02F2203341F823207E
:1029E00000BF0C37BD4680BC704700BF00E100E06F
:1029F00080B483B000AF0346FB71FB7903F01F0284
:102A0000074997F907305B09012000FA02F26033A9
:102A100041F8232000BF0C37BD4680BC704700BF83
:102A200000E100E080B582B000AF1A4B9B6C194A00
:102A300043F480139364174B9B6C164A43F0F07376
:102A4000936400237B6012E0134A7B68134493F97C
:102A500000301846FFF7B2FF0F4A7B68134493F922
:102A600000301846FFF7C4FF7B6801337B607B684A
:102A70001F2BE9D9074B9B6C064A23F0F073936434
:102A8000044B9B6C034A23F48013936400BF083704
:102A9000BD4680BD008003407849002080B485B0E9
:102AA00000AF03463960FB71FB79FB60FB681F2BAD
:102AB00000D900BEFB681F2B05D8054AFB6852F8F9
:102AC00023303A681A6000BF1437BD4680BC704797
:102AD000F848002080B584B000AF0346FB71FB7955
:102AE000FB60FB681F2B00D900BEFB681F2B15D8AD
:102AF0000C4AFB6852F823301B68BB60094AFB682C
:102B000052F82330BA6842F008021A60064AFB689D
:102B1000134493F900301846FFF738FF00BF103711
:102B2000BD4680BDF84800207849002080B485B0BB
:102B300000AF0346FB71FB79FB60FB681F2B00D9DC
:102B400000BEFB681F2B06D8064A0121FB6801FA6C
:102B500003F3C2F88030BFF34F8F00BF1437BD4678
:102B600080BC70470030014080B483B000AF0346A2
:102B7000FB71FB7903F01F02064997F907305B09E7
:102B8000012000FA02F241F8232000BF0C37BD46B5
:102B900080BC704700E100E080B483B000AF034622
:102BA000FB71FB7903F01F02074997F907305B09B6
:102BB000012000FA02F2203341F8232000BF0C3735
:102BC000BD4680BC704700BF00E100E080B483B028
:102BD00000AF0346FB71FB7903F01F02074997F929
:102BE00007305B09012000FA02F2603341F823202C
:102BF00000BF0C37BD4680BC704700BF00E100E05D
:102C000080B483B000AF78600B46FB707B6803F044
:102C100070427B685B0123F07E4323F01F03134364
:102C2000FA789200134403F100731A4601231360EB
:102C300000BF0C37BD4680BC704780B483B000AF86
:102C400078600B46FB707B6803F070427B685B0129
:102C500023F07E4323F01F031343FA7892001344BA
:102C600003F100731A460023136000BF0C37BD4602
:102C700080BC704780B483B000AF78600B46FB70B7
:102C80007B6803F070427B685B0123F07E4323F096
:102C90001F031343FA789200134403F100731B6877
:102CA000DBB218460C37BD4680BC704780B582B099
:102CB00000AF78607B68002B00D100BE7B68002BE2
:102CC00078D00C20FFF768FF3C4B9B6C3B4A43F0ED
:102CD000100393640C20FFF779FF384B9B6C374A45
:102CE00023F01003936400F059F9786800F088F934
:102CF0007B680433184600F097FE00F0F1FD00F009
:102D00003FFE2F4B4FF6FF72A3F85A202C4B4FF685
:102D1000FF72A3F85C202A4B0022A3F85E20284B08
:102D20000222A3F85820264B0222A3F86020244B4D
:102D30000022A3F86220224B4FF6FF72A3F8642012
:102D40001F4B00221A651E4B00225A657B689B7A36
:102D5000FF2B05D100F0A6FE03461A467B689A7247
:102D60007B689B7A1846FDF7EBFD7B681B6818466D
:102D7000FDF71CFEFDF784FE00F028F80F4B002243
:102D8000C3F8AC200D4B0122C3F8AC210B4B002241
:102D9000C3F8AC2100210B48FFF732FF022109489C
:102DA000FFF72EFF00210848FFF72AFF04210648FD
:102DB000FFF726FF00BF0837BD4680BD00800340F7
:102DC000A8800020001004409811044080B582B013
:102DD00000AF7A1DBB1D11461846FDF793FE034652
:102DE000FB71FB79002B57D0BB79012B06D12C4B03
:102DF0009B6B2B4A43F48033936305E0284B9B6B1A
:102E0000274A23F480339363BB79022B0CD1244BE4
:102E10005B68234A23F440735360214B5B68204A6C
:102E200043F4007353600BE01D4B5B681C4A23F4B2
:102E3000407353601A4B5B68194A43F480735360C4
:102E4000BB79002B01D10123BB71164BD3F88C3019
:102E500023F00303BA791146124A0B43C2F88C30AF
:102E60007B79002B0CD10E4B5B680D4A23F00103DC
:102E700053600B4BDB6D0A4A43F48003D3650BE0D0
:102E8000074B5B68064A43F001035360044BDB6D5C
:102E9000034A23F48003D36500BF0837BD4680BDD5
:102EA000001004400080034080B483B000AF78601D
:102EB0007B68002B00D100BE7B68002B67D07B684D
:102EC0003F221A607B68FF229A727B680122DA72C5
:102ED0007B6801221A737B6807225A737B68002281
:102EE0009A737B680122DA737B6801221A747B680B
:102EF00001225A747B680022DA747B6801221A75F9
:102F00007B6801225A757B6850229A757B68602223
:102F1000DA757B680F221A767B6800225A767B6806
:102F200000229A767B680022DA767B6800221A7784
:102F30007B680A225A777B6807229A777B6800228F
:102F4000DA777B684FF4C0621A847B6844F26002CF
:102F50005A847B6837229A847B6800229A620E4BDF
:102F60001A787B681A710C4B5A787B685A710A4B35
:102F70009A787B689A71084BDA787B68DA71064B2D
:102F80001A797B681A72044B5A797B685A7200BFAF
:102F90000C37BD4680BC70479849002080B500AF13
:102FA00010211448FFF72CFE11211248FFF728FECC
:102FB00012211048FFF724FE13210E48FFF720FED0
:102FC0001F210D48FFF71CFE00210C48FFF718FEDB
:102FD00001210A48FFF714FE02210848FFF710FEFE
:102FE00003210648FFF70CFE04210448FFF708FE02
:102FF00000BF80BD00100440381004404810044059
:1030000080B584B000AF78607B68DB7A012B04D098
:103010007B68DB7A002B00D000BE7B681B7B012B1A
:1030200004D07B681B7B002B00D000BE7B685B7BE1
:103030000F2B00D900BE7B689B7B012B04D07B68E3
:103040009B7B002B00D000BE7B68DB7B012B04D078
:103050007B68DB7B002B00D000BE7B681B7C012BD8
:1030600004D07B681B7C002B00D000BE7B685B7C9F
:10307000012B04D07B685B7C002B00D000BE7B68FA
:10308000DB7C012B04D07B68DB7C002B00D000BEF6
:103090007B681B7D012B04D07B681B7D002B00D03F
:1030A00000BE7B685B7D012B04D07B685B7D002BC1
:1030B00000D000BE7B68DB7D5BB2002B00DA00BE77
:1030C0007B681B7E1F2B00D900BE7B685B7E012BBB
:1030D00004D07B685B7E002B00D000BE7B689B7EAB
:1030E000012B04D07B689B7E002B00D000BE7B6848
:1030F000DB7E012B04D07B68DB7E002B00D000BE82
:103100007B681B7F012B04D07B681B7F002B00D0CA
:1031100000BE7B685B7F0F2B00D900BE7B689B7F66
:10312000072B00D900BE7B68DB7F012B04D07B68B6
:10313000DB7F002B00D000BE7B681B8CB3F5C06F1B
:1031400000D900BE7B689B8CB3F5806F00D300BEB6
:103150007B68DB7A012B04D103217748FFF750FD10
:1031600003E003217448FFF768FD7B681B7B012B9C
:1031700004D104217048FFF743FD03E004216E48A9
:10318000FFF75BFD7B689B7F03F00703FB607B68B9
:10319000DB7F012B03D1FB6843F01003FB60674A20
:1031A000FB681362654B1B68644A23F0004323F4F9
:1031B000702313601F216248FFF73FFD5F4B9B6C3C
:1031C0005E4A23F01F0393647B68DB7C012B03D1F1
:1031D0004FF48073FB6001E00023FB607B681B7D84
:1031E000012B03D1FB6843F02003FB607B685B7D10
:1031F000012B03D1FB6843F01003FB604F4AFB68CF
:1032000013600123FB607B685B7C012B03D1FB68AF
:1032100043F00203FB607B681B7C012B03D1FB683E
:1032200043F00403FB607B68DB7B012B03D1FB686D
:1032300043F01003FB607B689B7B012B03D1FB6891
:1032400043F02003FB60FB6843F40073FB607B6882
:103250005B7B1B03FA681343FB60384AFB685360CF
:103260007B68DB7DFB607B689B7D1B02FA681343F8
:10327000FB607B685B8C1B04FA681343FB602F4A7E
:10328000FB6893607B689B8C1A4640F2FF231340D7
:10329000FB607B681B7E1B03FA681343FB607B6843
:1032A0005B7E012B03D1FB6843F48033FB607B68BA
:1032B0009B7E012B03D1FB6843F40033FB607B68EA
:1032C000DB7E012B03D1FB6843F48023FB607B682A
:1032D0001B7F012B03D1FB6843F40023FB607B6859
:1032E0005B7F1B05FA681343FB60144AFB68D360DD
:1032F0007B681A8C114B1A61104B4FF4F8529A6488
:103300000E4B104ADA640D4B0F4A1A650B4B0F4AED
:103310005A650A4B4FF6FF729A65084B0C4ADA65FC
:103320000423FB600B4AFB689B00C2F88C3000BF93
:103330001037BD4680BD00BF3880034000100440F8
:10334000381004400000FF0F80010004FFFF580206
:10335000E7EF0F000080034080B483B000AF034666
:10336000FB710B46BB711346BB80FB791F2B00D949
:1033700000BEBB791F2B00D900BEFB791F2B15D8CF
:10338000BB791F2B12D80C4B5B6B03F00103002B96
:10339000F9D1FB79084A1B029362074B9A6ABB7901
:1033A000054913438B62044ABB88D36200BF0C37C4
:1033B000BD4680BC704700BF0010044080B586B099
:1033C00000AF03460A46FB711346BB71274B7B6176
:1033D00000237B82FB791F2B00D900BEBB791F2BFA
:1033E00000D900BEFB791F2B36D8BB791F2B33D8F1
:1033F0001F4B5B6B03F00103002BF9D1FB791C4AD7
:103400001B0293621A4B9A6ABB79194913438B6268
:1034100000211848FFF7F4FB7B69013B7B61144BEB
:103420005B6B03F00403FB60114B5B6B03F0010368
:10343000BB607B69002B05D0BB68002BECD1FB681F
:10344000002BE9D17B69002B00D100BE7B69002BEA
:1034500002D0074B1B6B7B8200210648FFF7EDFB78
:103460007B8A18461837BD4680BD00BFA086010084
:10347000001004402410044080B584B000AF786090
:1034800039600023FB730C20FFF786FB7B68002B61
:1034900000D100BE7B6803F00303002B00D000BE08
:1034A000404BB3F96030002B74DD3E4BB3F9603014
:1034B0009BB2013B9BB21AB23A4BA3F86020394B46
:1034C000B3F86230BB81B7F90C20364913469B0034
:1034D00013449B000B4428337A681A60B7F90C2018
:1034E000304913469B0013449B000B4438333A6821
:1034F0001A60B7F90C202B4913469B0013449B001C
:103500000B442C331B68B7F90C2043F000412548CD
:1035100013469B0013449B0003442C331960002185
:103520002148FFF7A7FB0346002B17D11D4ABB8993
:10353000A2F86430B7F90C2013469B0013449B009B
:103540002833184A1A44194BC3F89021022118480D
:10355000FFF756FB00211448FFF752FB114BB3F95C
:1035600062309BB201339BB21AB20E4BA3F86220B9
:103570000C4BB3F96230012B03DD0A4B0022A3F898
:10358000622003210A48FFF775FB0346002B01D197
:103590000123FB730C20FFF7E7FAFB7B184610377B
:1035A000BD4680BDA88000208C110440001004405E
:1035B0009411044080B586B000AFF860B9607A60BD
:1035C0000023FB750C20FFF7E7FAFB68002B00D106
:1035D00000BEBB68002B00D100BEFB6803F00303F4
:1035E000002B00D000BE334BB3F95830002B59DD0F
:1035F000304BB3F958309BB2013B9BB21AB22D4B02
:10360000A3F858202B4BB3F95A30B3F1FF3F05D143
:10361000284BB3F95E20274BA3F85A20254BB3F96A
:103620005E20244BA3F85C20224BB3F95E301A468F
:1036300013469B0013449B001E4A13443B613B69A5
:10364000FA681A603B697A681A613B69BA685A601D
:10365000194BD3F88031002B03D1174A3B69C2F8CC
:103660008431154B0122C3F88021124BB3F95E302F
:10367000012B04D10F4B0022A3F85E2009E00D4B73
:10368000B3F95E309BB201339BB21AB2094BA3F877
:103690005E2003210948FFF7EDFA0346002B01D114
:1036A0000123FB750C20FFF75FFAFB7D18461837E6
:1036B000BD4680BDA8800020001004408811044051
:1036C00080B584B000AF0D4BD3F89C31FB60FB6834
:1036D00003F00103BB60BB68002B01D000F08AF847
:1036E000FB6803F010037B607B68002B01D000F0C7
:1036F00023F800BF1037BD4680BD00BF0010044056
:1037000080B483B000AF7860034A7B68136500BF64
:103710000C37BD4680BC7047A880002080B483B0C1
:1037200000AF7860034A7B68536500BF0C37BD4625
:1037300080BC7047A880002080B584B000AF002313
:10374000FB60294BB3F964301A4613469B001344BF
:103750009B002833244A1344BB60234BB3F96430E5
:103760009BB201339BB21AB21F4BA3F864201E4BCD
:10377000B3F96430012B03DD1B4B0022A3F8642056
:1037800000211A48FFF73CFA194BD3F894311B0C6F
:10379000DBB2FB60144BB3F960309BB201339BB2D8
:1037A0001AB2114BA3F860200F4B5B6D002B13D0A6
:1037B000BB681B687B60BB685B68C3F30B03043B9F
:1037C0003B60094B5B6D002B06D0074B5B6DBA6805
:1037D0001269396878689847FB68002BB1D100BF3F
:1037E0001037BD4680BD00BFA88000209411044062
:1037F0000010044080B584B000AF0023BB60364B9E
:10380000B3F95A30B3F1FF3F00D100BE324BB3F9E8
:103810005C30B3F1FF3F00D100BE2F4BB3F85A30FC
:10382000FB812D4BB3F958309BB201339BB21AB2D6
:10383000294BA3F85820284B1B6D002B0DD0264B8D
:10384000196DB7F90E20244813469B0013449B00C2
:10385000034410331B68184688471F4BB3F95C308C
:10386000B7F90E209A420CD11B4B4FF6FF72A3F80A
:103870005A20194B4FF6FF72A3F85C200123BB605E
:103880001FE0FB8901339BB2FB81B7F90E30012B9E
:1038900001DD0023FB81104AFB89A2F85A30B7F9F9
:1038A0000E200D4913469B0013449B000B44043328
:1038B0001B6803F000437B607B68002B01D1012370
:1038C000BB6000210548FFF79BF9BB68002BA8D01F
:1038D00000BF1037BD4680BDA8800020881104407D
:1038E00080B483B000AF00237B603FE023497A6857
:1038F00013469B0013449B000B4400221A601F498F
:103900007A6813469B0013449B000B4404334FF02A
:1039100000421A607B68012B0AD118497A68134665
:103920009B0013449B000B440833144A1A6010E0B8
:103930007B685A1C13469B0013449B000F4A99183E
:103940000E487A6813469B0013449B0003440833D7
:1039500019600A497A6813469B0013449B000B4484
:103960000C337A681A607B6801337B607B68012BBB
:10397000BCDD00BF0C37BD4680BC7047A88000206E
:1039800080B483B000AF00237B6040E024497A68B4
:1039900013469B0013449B000B44283300221A60FB
:1039A0001F497A6813469B0013449B000B442C3339
:1039B00000221A607B68012B0AD119497A681346E4
:1039C0009B0013449B000B443033164A1A6011E0ED
:1039D0007B685A1C13469B0013449B002833104AF3
:1039E00099180F487A6813469B0013449B000344C0
:1039F000303319600A497A6813469B0013449B00D0
:103A00000B4434337A681A607B6801337B607B68CF
:103A1000012BBBDD00BF0C37BD4680BC704700BF2B
:103A2000A8800020D080002080B485B000AF7860EE
:103A30007B68002B00D100BE7B68002B2AD07B68FE
:103A400005331B781B06FB607B6804331B781B0463
:103A5000FA681343FB607B6803331B781B02FA6828
:103A60001343FB607B6802331B781A46FB681343E1
:103A7000FB600B4AFB6813647B6801331B781B06F1
:103A8000FB607B681B781B04FA681343FB60044AE5
:103A9000FB68536400BF1437BD4680BC704700BF4D
:103AA0000010044080B584B000AF0023FB734FF6D4
:103AB000FF73FB8002237B717A79FB7B11461846EA
:103AC000FFF77CFC03467B807A88FB889A4202D011
:103AD0000123BB6004E00023BB60FB7B0133FB736D
:103AE000FB7B1F2B02D8BB68002BE5D0FB7B184665
:103AF0001037BD4680BD80B483B000AF7860FEE76C
:103B000080B485B000AFF860B9607A603B60002394
:103B100018461437BD4680BC7047000080B586B09B
:103B200000AF78601F4B1B68002B02D11D4B1E4A53
:103B30001A601C4B1B687B61EFF308833B61194BD8
:103B40001B683A699A420FD9164B1A687B6813446E
:103B50003A699A421AD21923144A01210020FFF728
:103B6000CFFF0120FFF7C7FF114BFB600D4B1A6819
:103B70007B681344FA689A4208D219230D4A01213E
:103B80000020FFF7BDFF0120FFF7B5FF054B1A68C6
:103B90007B681344034A13607B6918461837BD4697
:103BA00080BD00BF10810020F0810020A0490020CE
:103BB00000F00020BC49002080B500AF00F0F8F80C
:103BC000044B5B69034A43F400735361FCF732FC16
:103BD00000BF80BD00ED00E080B588B000AF304B85
:103BE000D3F8983003F08063FB61FB69002B4CD164
:103BF0002B4BD3F8983003F48053BB61BB69002B87
:103C000015D1284B284A1A60284B274A1A60284B9E
:103C1000254A1A60274B284A1A60284B224A1A6004
:103C2000274B214A1A60274B1F4A1A6034E0264A64
:103C30003B1D92E8030083E80300194BD3F89C3046
:103C40009B0903F007037B613A1D7B6913441B78D2
:103C5000FB74FB7C012B0AD0022B0DD0002B0FD163
:103C600000F036F8F860F86800F050F814E04FF40F
:103C7000004000F04BF80FE0144800F047F80BE06C
:103C8000124800F043F800BF06E000F021F8F860A9
:103C9000F86800F03BF8FFE700BF2037BD4680BD65
:103CA000008003404C50002000E1F50550500020FA
:103CB000545000205850002040787D015C50002076
:103CC0006050002064500020D049002040420F0086
:103CD00080B483B000AF0A4BD3F8503103F0040333
:103CE0003B603B68002B02D1064B7B6001E0064B3A
:103CF0007B607B6818460C37BD4680BC704700BFB0
:103D00000080034040787D0180F0FA0280B483B0E7
:103D100000AF78600C4A7B6813600C4A7B681360C4
:103D20000B4A7B6813600B4B0B4A1A600B4A7B688B
:103D300013600B4A7B6813600A4A7B68136000BFFC
:103D40000C37BD4680BC70474C50002050500020BE
:103D5000545000205850002040787D015C500020D5
:103D6000605000206450002080B483B000AF0E4B40
:103D7000D3F84C313B603B684FF60202934204D0CB
:103D80003B680A4A934203D005E001237B6005E0CB
:103D900002237B6002E000237B6000BF7B68184643
:103DA0000C37BD4680BC70470080034002F801001C
:103DB00080B582B000AFFFF7D7FF78607B68012B3A
:103DC00002D100F007F800E000BF00BF0837BD4691
:103DD00080BD000080B400AF094BD3F89830084A8A
:103DE00043F48073C2F89830054BD3F89830044AF6
:103DF00023F08063C2F8983000BFBD4680BC704796
:103E00000080034070B500260C4D0D4C641BA410BF
:103E1000A64209D100F0FAFD00260A4D0A4C641BA7
:103E2000A410A64205D170BD55F8043B9847013651
:103E3000EEE755F8043B98470136F2E7244A0020A4
:103E4000244A0020244A0020284A00200A449142A3
:103E500000F1FF3300D1704710B511F8014B9142CA
:103E600003F8014FF9D110BD0CB430B5174B0C1E3F
:103E70009DB01D6808DA8B234FF0FF302B601DB01A
:103E8000BDE8304002B070474FF40273ADF8143013
:103E90000CBF234604F1FF33049307934FF6FF73DF
:103EA00002900690ADF81630209A21AB02A9284660
:103EB000019300F069F8431CBCBF8B232B60002CDE
:103EC000DDD00022029B1A70D9E700BF68500020A5
:103ED0002DE9F0478E6882469E420C4691469846F0
:103EE00038D8B1F80CC01CF4906F31D062692568E5
:103EF000096902EB42026F1A02EBD27201335510CC
:103F00003B449D4238BF1D461CF4806F30D029468B
:103F100000F032FB064650B90C234FF0FF30CAF8D0
:103F20000030A38943F04003A381BDE8F0873A46FF
:103F30002169FFF78BFFA38923F4906343F080038B
:103F4000A38126613E44266046466561ED1BA5605F
:103F5000464500D9464632464946206800F0A6FA52
:103F6000A36800209B1BA36023681E442660DCE737
:103F70002A4600F05BFB06460028E2D12169504644
:103F800000F0AEFAC8E700002DE9F04F1E468B891D
:103F90009DB01B0607460D4614460ED50B6963B946
:103FA000402100F0E9FA2860286120B90C233B6029
:103FB0004FF0FF30C9E040236B61002309932023B9
:103FC0008DF8293030234FF0010ADFF898918DF8F1
:103FD0002A30039623461E4613F8012B0AB1252AE0
:103FE000F9D1B6EB040B0BD05B4622462946384686
:103FF000FFF76EFF013000F0A380099B5B4409933B
:104000003378002B00F09C8000234FF0FF32CDE985
:1040100005230136049307938DF853301A933446E1
:10402000052214F8011B4F4800F032FA049BC0B976
:10403000D90644BF20228DF853201A0744BF2B22F3
:104040008DF8532032782A2A13D0344600200A26CD
:10405000079A214611F8013B303B092B4BD970B927
:1040600014E0A0EB09000AFA00F018430490264679
:10407000D5E7039A111D12680391002A01DB07920C
:1040800004E0524243F002030792049323782E2B5C
:104090000CD163782A2B33D1039B02341A1D1B6881
:1040A0000392002BB8BF4FF0FF3305932E4E03222F
:1040B0002178304600F0ECF938B14023801B03FA38
:1040C00000F0049B01340343049314F8011B0622FF
:1040D00026488DF8281000F0DBF9002838D0244B52
:1040E00013BB039B073323F0070308330393099B98
:1040F000434409936EE706FB023201200C46A8E711
:1041000000230A26194601340593204610F8012B96
:10411000303A092A03D9002BC8D00591C6E706FB1F
:10412000012101230446F0E703AB00932A46114B1B
:1041300004A93846AFF30080B0F1FF3F8046D6D1E6
:10414000AB895B063FF534AF09981DB0BDE8F08F31
:1041500003AB00932A46074B04A9384600F082F8C7
:10416000EAE700BFD8490020DE490020E2490020EC
:1041700000000000D13E00202DE9F04791461F4687
:104180008A680B6906469342B8BF1346C9F80030E7
:1041900091F843200C46DDF8208012B10133C9F8B4
:1041A00000302368990642BFD9F800300233C9F8BD
:1041B0000030256815F0060507D104F1190AE368F7
:1041C000D9F800209B1AAB4229DC94F843302268CE
:1041D000003318BF012392062ED404F1430239465E
:1041E0003046C047013021D02368E56803F006035C
:1041F000042B18BF0025D9F800204FF0000908BF94
:10420000AD1AA368226908BF25EAE5759342C4BFC9
:104210009B1AED181A344D451AD1002008E00123ED
:10422000524639463046C047013003D14FF0FF3087
:10423000BDE8F0870135C2E73020E11881F843007E
:104240005A1C94F845102244023382F84310C4E704
:104250000123224639463046C0470130E6D009F1F5
:104260000109D8E72DE9F04306460C4601F1430069
:10427000097E85B06E29984617460C9B00F0BB80DE
:1042800024D8632939D00AD8002900F0C4805829DD
:1042900000F0928004F1420584F8421035E0642970
:1042A00001D06929F6D125681A6815F0800F02F14E
:1042B00004012CD012681960002A03DA2D2352421F
:1042C00084F84330DFF8C0C10A233FE0732900F0CF
:1042D000A68008D86F2921D07029DBD1226842F04E
:1042E0002002226003E0752918D07829D2D17822E3
:1042F000DFF898C184F8452062E01A6804F14205AD
:10430000111D1960136884F84230012394E012688B
:1043100015F0400F196018BF12B2CDE7D4F800C0F5
:104320001A681CF0800F02F104051D6001D01268AC
:1043300003E01CF0400FFAD012886F290CBF08234D
:104340000A23DFF844C1002184F843106568002D7A
:10435000A8BF2168A560A4BF21F0040121600AB9AB
:10436000002D46D00546B2FBF3F103FB112E1CF8DD
:104370000EE0934205F801ED39D9082B0BD12368E3
:10438000DA0708D5236962689A42DEBF302305F850
:10439000013C05F1FF35401B2061CDF800803B4614
:1043A00003AA21463046FFF7E7FE013049D14FF01E
:1043B000FF3005B0BDE8F083DFF8CCC084F84510CD
:1043C0001D68216855F8042B1D600D060BD5CD071F
:1043D00044BF41F0200121601AB9236823F0200373
:1043E00023601023AFE74B0648BF92B2EFE70A46BF
:1043F000B9E70546C1E71A68D4F800C0151D616920
:104400001CF0800F1D60136801D0196003E01CF0E0
:10441000400FFAD01980002305462361BDE71A68D2
:10442000111D1960156800216268284600F030F8F7
:1044300008B1401B606063682361002384F8433047
:10444000ABE723692A4639463046C0470130AED033
:1044500023689B0713D4E068039B9842B8BF1846B3
:10446000A7E701234A4639463046C04701309ED06F
:104470000135E368039A9B1AAB42F2DCEBE70025B7
:1044800004F11909F5E700BFE9490020FA490020C5
:1044900010B5C9B202449042034601D1002303E0A3
:1044A0001C7801308C42F6D1184610BD884210B5F8
:1044B00001EB020302D983421C4607D8421E9942EF
:1044C00008D011F8014B02F8014FF8E783189A1A47
:1044D0009A4200D110BD14F8011D03F8011DF7E741
:1044E00038B50546002943D051F8043C0C1F002B79
:1044F000B8BFE41800F0D0F81E4A1368104633B96C
:10450000636014602846BDE8384000F0CBB8A34291
:104510000BD921686218934201BF1A685B68521870
:10452000226063600460EDE713465A680AB1A24254
:10453000FAD919685818A0420BD1206801445818BC
:1045400082421960DED110685268014419605A60D5
:10455000D8E702D90C232B60D4E7206821188A42BF
:1045600001BF116852680918216062605C60C9E788
:1045700038BD00BF14810020F8B5CD1C25F003051F
:1045800008350C2D38BF0C25002D064601DBA9424D
:1045900003D90C2333600020F8BD00F07DF82149D9
:1045A0000A6814469CB9204F3B6823B9214630461F
:1045B00000F062F838602946304600F05DF8431C90
:1045C00023D10C233046336000F06CF8E3E7236816
:1045D0005B1B17D40B2B03D923601C44256004E01C
:1045E0006368A2420CBF0B605360304600F05AF87B
:1045F00004F10B00231D20F00700C21ACCD01B1AB7
:10460000A350C9E722466468CCE7C41C24F0030425
:10461000A042E3D0211A304600F02EF80130DDD15F
:10462000CFE700BF1481002018810020F8B50746AD
:1046300014460E4621B91146BDE8F840FFF79CBF6D
:1046400022B9FFF74DFF25462846F8BD00F030F8A7
:10465000A0420FD221463846FFF78EFF05460028BC
:10466000F2D031462246FFF7F1FB31463846FFF7DC
:1046700037FFE9E73546E7E738B50023054C05463F
:1046800008462360FFF74AFA431C02D1236803B1AE
:104690002B6038BDE0810020014800F011B800BF58
:1046A000E8810020014800F00CB800BFE88100203C
:1046B00051F8043C181F002BBCBF0B58C0187047A2
:1046C000704770474000200000018000646464C8A7
:1046D0007561727420696E697469616C697A656468
:1046E000210A0D0066667420696E697469616C69DF
:1046F0007A6564210A0D00006D616320696E69743A
:1047000069616C697A6564210A0D0000415250208C
:1047100053656E74210A0D003D3D20657665727902
:104720007468696E672069732073657420757021E1
:10473000203D3D0A0D0000004C696E6B2069733A04
:10474000200000005550210D0A00000020202020EC
:1047500031304D6270732000202020203130304DE8
:1047600062707320000000002020202031303030A3
:104770004D62707320000000202020206E6F706555
:104780002000000046756C6C204475706C65780DD7
:104790000A00000048616C66204475706C65780DF5
:1047A0000A000000444F574E210D0A003D3D3D3D9B
:1047B0003D3D3D3D3D3D3D3D0D0A50485920524552
:1047C000474953544552530D0A0000007068792040
:1047D000726567202564203A2025780D0A000000C4
:1047E0003D3D3D3D3D3D3D3D3D3D3D3D0D0A0000D6
:1047F0003D3D3D3D3D3D3D3D3D3D0D0A7374617484
:10480000757320737461727465640D0A0000000092
:10481000494E5055542052454144590D0A0000005C
:10482000494E5055542046554C4C0D0A000000008E
:104830004F55545055542052454144590D0A0000DB
:104840004F55545055542056414C49440D0A0000D0
:104850004142532056414C55452056414C49440D48
:104860000A000000494E54455252555054204143CD
:10487000544956450D0A00003D3D3D3D3D3D3D3D01
:104880003D3D0D0A636F6E74726F6C2072656769CF
:10489000737465720D0A0000575249544520454E05
:1048A00041424C45440D0A00575249544520444F5B
:1048B0004E450D0A000000005245414420444F4E31
:1048C000450D0A004155544F205245414420444F64
:1048D0004E450D0A00000000737461747573206604
:1048E000696E69736865640D0A3D3D3D3D3D3D3D22
:1048F0003D3D3D0D0A000000003001400430014004
:10490000083001400C3001401030014014300140AB
:10491000183001401C30014020300140243001405B
:10492000283001402C30014030300140343001400B
:10493000383001403C3001404030014044300140BB
:10494000483001404C30014050300140543001406B
:10495000583001405C30014060300140643001401B
:10496000683001406C3001407030014074300140CB
:10497000783001407C3001403233343536373839B5
:104980003A3B3C3D3E3F404142434445464748490F
:104990004A4B4C4D4E4F5051C0B13C888888000066
:1049A0004865617020616E6420737461636B20637D
:1049B0006F6C6C6973696F6E0A0000004F7574202C
:1049C0006F662068656170206D656D6F72790A0091
:1049D0000001000102020303232D302B2000686C2C
:1049E0004C00656667454647003031323334353612
:1049F000373839414243444546003031323334354B
:104A0000363738396162636465660000F8B500BF07
:104A1000F8BC08BC9E467047F8B500BFF8BC08BC9F
:104A20009E46704719050020F10400200000000098
:104A3000FFFFFFFFFFFF000000000000080600016D
:104A40000800060400010000000000000000000053
:104A5000000000000000000000000000FFFFFFFF5A
:104A6000FFFF22222222222208004500021DFFFF12
:104A700000008011A640646464C8646464FFDA7A4C
:104A8000DA7A0209000000000000000000000000C7
:104A90000000000000000000000000000000000016
:104AA0000000000000000000000000000000000006
:104AB00000000000000000000000000000000000F6
:104AC00000000000000000000000000000000000E6
:1050400000000000000000000100000000E1F50584
:1050500000E1F50500E1F50540787D0100E1F50589
:1050600000E1F50500E1F5056C50002000000000AE
:105070000000000000000000000000000000000030
:105080000000000000000000000000000000000020
:105090000000000000000000000000000000000010
:1050A0000000000000000000000000000000000000
:1050B00000000000000000000000000000000000F0
:1050C00000000000000000000000000000000000E0
:040000052000019145
:00000001FF
